:020000040800F2
:10000000A8070020890100085B1D0008FF170008F1
:10001000591D00083B030008A71E0008000000004F
:100020000000000000000000000000005F1D00084C
:100030003D030008000000005D1D0008611D000870
:10004000A3010008A3010008A3010008A301000800
:10005000A3010008A3010008A3010008A3010008F0
:10006000A3010008A3010008A3010008A3010008E0
:10007000A3010008A3010008A3010008A3010008D0
:10008000A3010008A3010008A3010008A3010008C0
:10009000A3010008A3010008A30100080F04000841
:1000A000A3010008A3010008A3010008A3010008A0
:1000B000C51D0008A3010008A3010008A301000852
:1000C000A3010008A3010008A3010008A301000880
:1000D000A3010008A3010008A3010008A301000870
:1000E000E9030008A3010008A301000800F002F8DA
:1000F00000F03AF80AA090E8000C82448344AAF188
:100100000107DA4501D100F02FF8AFF2090EBAE885
:100110000F0013F0010F18BFFB1A43F0010318473B
:10012000541F0000741F0000103A24BF78C878C123
:10013000FAD8520724BF30C830C144BF04680C60ED
:10014000704700000023002400250026103A28BF35
:1001500078C1FBD8520728BF30C148BF0B60704739
:100160001FB51FBD10B510BD00F0AEF81146FFF76A
:10017000F7FF01F0A9FE00F0CCF803B4FFF7F2FF9F
:1001800003BC00F0D3F80000094880470948004745
:10019000FEE7FEE7FEE7FEE7FEE7FEE7FEE7FEE737
:1001A000FEE7FEE704480549054A064B7047000094
:1001B000C31D0008ED000008A8010020A8070020CA
:1001C000A8030020A803002040EA010310B59B0704
:1001D0000FD1042A0DD310C808C9121F9C42F8D0B1
:1001E00020BA19BA884201D9012010BD4FF0FF3062
:1001F00010BD1AB1D30703D0521C07E0002010BD78
:1002000010F8013B11F8014B1B1B07D110F8013B03
:1002100011F8014B1B1B01D1921EF1D1184610BDE4
:1002200002F0FF0343EA032242EA024200F02CB844
:100230004FF0000200B5134694469646203922BF7F
:10024000A0E80C50A0E80C50B1F12001BFF4F7AFCA
:10025000090728BFA0E80C5048BF0CC05DF804EBAC
:10026000890028BF40F8042B08BF704748BF20F81A
:10027000022B11F0804F18BF00F8012B7047704718
:10028000704770474FF000020429C0F0128010F050
:10029000030C3FF4CFAFCCF1040CBCF1020F18BF3C
:1002A00000F8012BA8BF20F8022BA1EB0C01FFF7EF
:1002B000C1BF5FEAC17C24BF00F8012B00F8012B0D
:1002C00048BF00F8012B7047754600F02BF8AE468A
:1002D00005006946534620F00700854618B020B552
:1002E000FFF760FFBDE820404FF000064FF0000729
:1002F0004FF000084FF0000B21F00701AC46ACE8CE
:10030000C009ACE8C009ACE8C009ACE8C0098D463A
:10031000704710B50446AFF300802046BDE810409A
:10032000FFF72BBF00487047480100200149182003
:10033000ABBEFEE7260002007047FEE770470000F4
:1003400010B508490020084C086202464FF40061CD
:10035000204600F06CFA20460122BDE810409102D0
:1003600000F065BA00000020000801400EB50A49FF
:100370004FF47A7340228DE80E004FF6FF7101EAC8
:1003800080120223A021054800F048FCBDE80E4081
:10039000062000F007B9000004010020340000200E
:1003A0003EB54FF47A748DE81C0041EA801082B2A9
:1003B0000223A021014800F009FB3EBD34000020CB
:1003C0003EB54FF47A748DE81C0041EA801082B289
:1003D0000223A021034800F021FCBDE83E40062096
:1003E00000F0E0B83400002010B54FF4805000F069
:1003F0001DF94FF4005000F019F94FF4804000F05F
:1004000015F9BDE810404FF4004000F00FB94FF46B
:10041000807000F00BB900002DE9F8434FF001089F
:100420005E4B8DF800800021002202EBC1050544DF
:100430005C5C6D7895402C43521CD2B25C54082A07
:10044000F3D3491CC9B20329EED3544C123C002506
:100450006078C0B10423514A02210020FFF7B0FFA9
:1004600001236A4619460020FFF7AAFF6570D4F8F9
:100470001200C4F80E00042304F116020221002029
:10048000FFF78EFF5CE02078002859D0012714E0A8
:100490000026424AB1000423121D3846FFF780FFB0
:1004A0003E490422091D081FFFF78EFE08B3761C83
:1004B000F6B2102EEDD37F1CBFB22079617948438C
:1004C000401CB842E4D2E0786279810020790423AC
:1004D0005043401C80B2314AFFF772FFE078401C65
:1004E000C0B2E07010280BD02C4A01230F3A06212D
:1004F00022E0B10004232A4A3846FFF761FF29E0D1
:10050000E5702079401CC0B22071FF2809D102207B
:100510006071224A257101230D3A08210020FFF75E
:100520004FFF1E4A01230F3A06210020FFF748FF24
:100530001A4A01230E3A07210020FFF741FFE56127
:1005400016490422081FFFF73FFE08B1012718E0F3
:1005500084F80080E5611AE00026104AB100042307
:10056000121D3846FFF71CFF0C490422091D081F05
:10057000FFF72AFE78B1761CF6B2102EEDD37F1C61
:10058000BFB2207961794843401CB842E4D2C4F834
:100590001250BDE8F883FFF7D3FEF8E71200002001
:1005A0000401002070B5044600F046F90546601CC1
:1005B00002D004480078044400F03EF9401BA042F9
:1005C000FAD370BD24000020F0B4164900220125A2
:1005D000CB79154E5C1CE4B2B0F5005F20D00ADC8C
:1005E000B0F5807F15D0B0F5805F02D1F554CC71A5
:1005F0004A72F0BC70470B4B0B4E9B791A3E5C1C49
:10060000E4B2B0F5804F07D0B0F5004FF1D1F2540D
:1006100003E0F0BCFFF794BEF5548C710A72E8E772
:10062000F254E4E700000020EA000020044910B57D
:100630000A68024202D00860FFF7C6FF10BD000042
:10064000140401402DE9F84FDFF8B891002409F1B6
:10065000040A0AF1040B23460F270BF1040EC9E02C
:100660000125A5402A40AA427DD1674ED1F804C099
:10067000ACEB0608B44532D014DCBCF1030F3AD021
:1006800009DCBCF1000F2AD0BCF1010F1CD0BCF179
:10069000020F31D11DE0BCF1110F17D0BCF1120FC8
:1006A0002AD119E0B8F5881F19D006DCB8F5803FCB
:1006B00015D0B8F5801F1FD111E0B8F5001F0ED07E
:1006C000B8F5041F18D10AE0CB6815E0CB681B1DF4
:1006D00012E0CB6808330FE0CB680C330CE08B687A
:1006E0002BB1012B4FF0080303D0456104E0042334
:1006F00002E0056100E00023FF2A01D8064601E080
:1007000000F104064FEA840501D9A5F12005D6F8C9
:10071000008007FA05FC28EA0C0803FA05F548EA08
:100720000508C6F800804D68ED0062D5374DAE690A
:1007300046F00106AE61AD6924F0030605F001053F
:100740000095334D06EB050CDCF80850A607360F74
:1007500007FA06F825EA0805DFF8B880404503D116
:100760004FF0000817E044E0DFF8AC80404502D1CC
:100770004FF001080FE0DFF8A480404502D14FF0B0
:10078000020808E0DFF89880404502D14FF00308E6
:1007900001E04FF0040808FA06F848EA0508CCF82A
:1007A00008804D68D9F80060ED034D4601D5164329
:1007B00000E096432E604D68DAF80060AD035546C0
:1007C00001D5164300E096432E604D68DBF80060CB
:1007D000ED025D4601D5164300E096432E604D685C
:1007E000DEF80060AD02754601D5164300E0964381
:1007F0002E60641C0D682A46E5407FF431AFBDE8E9
:10080000F88F0000000401400000111000100240A9
:100810000000014000080140000C014000100140B0
:10082000001401408068084000D0012070470AB1E0
:10083000016170470904FBE70148806870470000C8
:100840002400002070B5040025D094F83D00002558
:1008500020B984F83C50204600F078FA242084F82F
:100860003D002068016821F00101016020680168F5
:1008700041F4004101602068016821F400410160F9
:1008800000F0C0FB4D4A6168914201D84C4900E03C
:100890004C49884201D2012070BD4B492368B0FB0E
:1008A000F1F15E6826F03F060E435E606368934296
:1008B00006D94FF4967359434FF47A73B1FBF3F1B1
:1008C0002368491C1E6A26F03F063143196261689D
:1008D000914210D84900401EB0FBF1F2521CC2F305
:1008E0000B02042A01D2042022E0B0FBF1F0401CEC
:1008F000C0F30B001CE0A268F2B301EBC10303EBF1
:100900000116431EB3FBF6F35B1C43F480431B0547
:1009100049D092B301EBC10202EB0111401EB0FBC2
:10092000F1F0401CC0F30B0040F4804040F4004064
:100930002168CA694CF6FF739A431043C861D4E931
:10094000071001432068026822F0C00211430160D1
:10095000D4E9030101432068826848F2FF339A43D7
:1009600011438160D4E9050108432168CA6822F077
:10097000FF021043C86001E00EE016E02068016845
:1009800041F0010101602564202084F83D002563C9
:1009900084F83E50002070BD01EB4106431EB3FBBE
:1009A000F6F35B1CB3E70120C2E701EB4101401EF7
:1009B000B0FBF1F0401CC0F30B00B7E7A0860100CC
:1009C00080841E0000093D0040420F002DE9FF4FCA
:1009D00083B00025DDE910799A4693460446DDF898
:1009E00048800095FFF728FF064694F83D00202830
:1009F0007CD11923012285492046009601F010F888
:100A00000028F5D194F83C0001286FD0012084F82B
:100A10003C0020680168C90703D1016841F0010169
:100A200001602068016821F400610160222084F8DF
:100A30003D00402084F83E0025646762A4F82A90B7
:100A4000608D20857248E062CDE9008653465A46A3
:100A50002046049900F0ECFE00287DD1208DDFF8BF
:100A6000B491202768B1012814D0022820680168B9
:100A70001ED041F480610160206841698069009066
:100A8000B6E02068416981690091016841F4007114
:100A90000160ADE02068016821F48061016072B6F8
:100AA0002068416981690091016841F400710AE0A0
:100AB00041F40061016072B620684169816900916A
:100AC000016821F48061016062B691E0032868D872
:100AD00001280CD0022843464FF000024946204628
:100AE00000960FD000F09CFFB0BB10E08BE03246C8
:100AF0004146204601F013F870BB20680069616A26
:100B000008706CE000F08CFF30BB72B634E02068F7
:100B1000016821F48061016072B620680069616A31
:100B20000870606A401C6062208D401E2085608DC8
:100B3000401E6085384846F2A8110068B0FBF1F00D
:100B4000C0EBC00000EB80000090401E009008D079
:100B500020684069C04300E029E040070CD50098B8
:100B6000F3E744F8305F6773A573206940F0200015
:100B7000206162B625731AE02068016841F40071B3
:100B8000016020680069616A0870606A401C6062E8
:100B9000218D491E2185618D491E618562B62168BE
:100BA0001BE032464146204600F0B9FF18B1012053
:100BB00007B0BDE8F08F20680069616A0870606A5C
:100BC000401C6062218D491E2185618D491E618511
:100BD00021684A69D24352070AD409690170606AE0
:100BE000401C6062208D401E2085608D401E608507
:100BF000208D00287FF46AAF84F83D7084F83E5061
:100C000084F83C50D4E70220D2E700000200100034
:100C10000000FFFF04000100300000202DE9FF4F1D
:100C200083B09A46DDE9119793460446DDF840808B
:100C3000FFF702FE054694F83D0020287FD11923D6
:100C4000012240492046009500F0EAFE002876D1B6
:100C500094F83C00012872D0012084F83C00206800
:100C60000168C90703D1016841F0010101602068F2
:100C7000016821F400610160212084F83D004020DA
:100C800084F83E0000262664C4F82480A4F82A9044
:100C9000608D20852C48E062CDE9007553465A46A8
:100CA0002046049900F042FE70B930E02A463946E9
:100CB000204600F067FF58B1206C042804D120685A
:100CC000016841F400710160012007B0BDE8F08FB8
:100CD000606A216800780861606A401C6062218D4A
:100CE000491E89B22185628D521E62852268536930
:100CF000DB435B070BD469B100781061606A401C6C
:100D00006062208D401E2085608D401E6085208D94
:100D10000028CBD12A463946204600F05BFE002849
:100D2000CAD154F83D0B016841F4007101602020E4
:100D300004F81E09E67766770020C6E7FFE7022081
:100D4000C3E70000020010000000FFFF10B586B0EE
:100D50000021009101910291039100680F4988429E
:100D60001AD10F4CA06940F00800A061A069694643
:100D700000F008000490C020009012200190032091
:100D800003900848FFF75EFCE06940F40010E06162
:100D9000E06900F40010049006B010BD005400405B
:100DA00000100240000C01400248816802781144A2
:100DB0008160704724000020074810B5016841F0A9
:100DC00010010160032000F075F8022000F006F821
:100DD00000F024F8002010BD0020024070B50D4D39
:100DE00004464FF47A712878B1FBF0F00A4909689B
:100DF000B1FBF0F000F0DCFA48B9102C07D2002269
:100E00002146501E00F036F800206C6070BD0120B5
:100E100070BD000024000020300000200C4808B500
:100E2000816941F001018161816901F00101009155
:100E3000C16941F08051C161C06900F080500090EB
:100E40000448416821F0E06141F00071416008BD53
:100E50000010024000000140002809DB00F01F02E2
:100E6000012191404009800000F1E020C0F800110C
:100E700070470000F0B40E4B1B680C46C3F302230E
:100E8000C3F10705042D00D90425191D072901D236
:100E9000002300E0DB1E012606FA05F1491E214071
:100EA00099409E40761E16403143F0BC00F0FCBFD6
:100EB0000CED00E0064900F0070208684FF6FF035A
:100EC000184040EA0220034A1043086070470000BF
:100ED0000CED00E00000FA052DE9F0470F46050093
:100EE00061D0434E306800F00700B84209D2306844
:100EF00020F0070038433060306800F00700B84247
:100F000051D128683B4C810712D5400703D5606852
:100F100040F4E06060602878000703D5606840F422
:100F2000605060606068A96820F0F000084360606D
:100F30002878C00728D06868012810D021680228C6
:100F400010D0890700292EDA616821F003010143DE
:100F50006160FFF771FC804641F288390DE021683D
:100F60008903EFE78901EDE7FFF766FCA0EB0801D5
:100F7000494502D90320BDE8F0876068696800F040
:100F80000C00B0EB810FEFD1306800F00700B842E1
:100F90000BD9306820F0070038433060306800F02B
:100FA0000700B84201D00120E5E72878400705D5C1
:100FB0006068E96820F4E060084360602878000712
:100FC00006D56068296920F4605040EAC10060607D
:100FD00000F028F86168084AC1F30311515CC84069
:100FE0000649086006480068FFF7F8FE0020C2E7DF
:100FF00000200240001002405C2000083000002069
:10100000280000200448054900684968044AC1F3E3
:101010000221515CC840704730000020001002409F
:101020006C20000812A185B00FC98DE80F0014A034
:10103000144A006804905168134801F00C03042B13
:1010400010D0082B0ED1C1F38343C9031DF8030050
:101050000AD5516804AAC1F34041515C0A4A504381
:10106000B0FBF1F005B0704708494843FAE70000CB
:1010700002030405060708090A0B0C0D0E0F1010D9
:10108000010200000010024000127A0000093D0039
:101090002DE9F84F040070D02078C04DC00749D02A
:1010A0006868C0F38100012807D06868C0F3810038
:1010B000022809D16868C00306D52868800339D59D
:1010C00060680028E7D035E06068B0F5803F0BD05D
:1010D00010B1B0F5A02F11D0286820F4803028601E
:1010E000286820F4802002E0286840F480302860DE
:1010F000606890B1FFF7A0FB06460AE0286840F45C
:1011000080202860F0E700BFFFF796FB801B642873
:1011100073D828688003F7D50CE0FFF78DFB0646EF
:1011200005E000BFFFF788FB801B6428F0D8286823
:101130008003F7D420789A4E80074FF001094FF0D2
:10114000000839D5686810F00C0F07D06868C0F344
:101150008100022809D16868C00306D42868800786
:1011600014D52069012808D110E02069B0B1C6F873
:101170000090FFF761FB074605E00AE1FFF75CFB23
:10118000C01B0228C4D828688007F7D52868616981
:1011900020F0F80040EAC10028600DE0C6F80080A9
:1011A000FFF74AFB074604E0FFF746FBC01B022897
:1011B00023D828688007F7D4207800072CD57948F1
:1011C000A169D9B1C0F80090FFF736FB074604E0EB
:1011D000FFF732FBC01B02280FD8686A8007F7D5DB
:1011E00071484FF4FA510068B0FBF1F0009000BF75
:1011F0000098411E0091FAD20EE080E0C0F8008015
:10120000FFF71AFB074604E0FFF716FBC01B022896
:1012100075D8686A8007F7D42078400760D5E869F8
:101220000027C00008D4E86940F08050E861E86910
:10123000012700F0805000905C480168C90513D474
:101240000168834641F480710160FFF7F5FA824638
:1012500006E000BFFFF7F0FAA0EB0A0064284ED8C2
:10126000DBF80000C005F5D5E06801280AD008B118
:10127000052813D0286A20F001002862286A20F08F
:10128000040002E0286A40F001002862E06841F2B0
:10129000883B98B1FFF7D0FA82460BE0286A40F00D
:1012A00004002862EEE700BFFFF7C6FAA0EB0A01D0
:1012B00059455AD8286A8007F6D50CE0FFF7BCFAE2
:1012C000824605E0FFF7B8FAA0EB0A0159454CD871
:1012D000286A8007F6D41FB1E86920F08050E861E1
:1012E000E06988B36968C1F38101022944D002280A
:1012F000C6F8608004D0FFF79FFA044638E034E077
:10130000FFF79AFA074604E0FFF796FAC01B022897
:101310002BD828688001F7D4206AB0F5803F05D12A
:101320006868A16820F4003008436860D4E90801C7
:101330000843696821F4741108436860C6F8609036
:10134000FFF77AFA044606E025E000BFFFF774FADB
:10135000001B022809D828688001F7D51BE000BFD0
:10136000FFF76AFA001B022802D90320BDE8F88FB4
:1013700028688001F4D40EE00128F7D06868226A5A
:1013800000F48031914204D1616A00F47010884207
:1013900001D00120EAE70020E8E700000010024049
:1013A00000004242800442423000002000700040B1
:1013B00010B5401EB0F1807F01D3012010BD4FF069
:1013C000E02460610F21601700F06EFD0020A06135
:1013D00007202061002010BD7047704770B590F85D
:1013E0003C20012A26D0012480F83C40022280F8CB
:1013F0003D2003685A689D6822F070060A683243EF
:101400005A600D4B02689A4208D0B2F1804F05D065
:101410000A4B9A4202D00A4B9A4204D1496825F0FD
:1014200080031943916080F83D40002180F83C1012
:10143000084670BD022070BD002C01400004004031
:101440000008004010B5040003D094F83D0010B12E
:1014500007E0012010BD002084F83C00204600F089
:101460001FF8022084F83D00211D206800F0B0FC28
:10147000012084F8460084F83E0084F83F0084F898
:10148000400084F8410084F8420084F8430084F866
:10149000440084F8450084F83D00002010BD0000A1
:1014A00008B50068B0F1804F12D10A48C16941F017
:1014B0000101C161C069002200F001000090032118
:1014C0001C20FFF7D7FCBDE808401C20FFF7C4BC78
:1014D00008BD00000010024090F83D10012901D025
:1014E00001207047022180F83D100168CA6842F06F
:1014F0000102CA6000680B49884208D0B0F1804FF1
:1015000005D00949884202D00849884204D181683F
:1015100001F00701062903D0016841F001010160D3
:1015200000207047002C01400004004000080040EB
:1015300070B5044690F83C00012817D0012584F8C6
:101540003C50022084F83D002068826822F0770237
:1015500022F47F4282600868502830D00DDC2028B9
:101560004DD005DC98B310283BD148E0022070BD77
:10157000302844D0402834D139E0602828D0702861
:1015800006D0B0F5805F2CD0B0F5005F29D10AE01D
:10159000CB68D1E90121206800F050FC2068816807
:1015A00041F0770109E0CB68D1E90121206800F022
:1015B00045FC2068816841F48041816011E0CA687F
:1015C0004968206800F04CFC5021206807E016E0D4
:1015D000CA684968206800F054FC6021206800F067
:1015E00037FC84F83D50002084F83C0070BDCA6888
:1015F0004968206800F034FC40212068EFE7226849
:1016000001461046EBE7704770B504460068016973
:101610004FF00005C943890715D4C168C94389073C
:1016200011D4E91E016101202077206880698007BC
:10163000204602D0FFF7E7FF04E000F098F82046CC
:1016400000F096F8257720680169C943490717D447
:10165000C168C943490713D46FF004010161022036
:1016600020772068806910F4407F204602D0FFF781
:10167000CAFF04E000F07BF8204600F079F82577F7
:1016800020680169C943090716D4C168C94309071D
:1016900012D46FF008010161042020772068C0692E
:1016A0008007204602D0FFF7AEFF04E000F05FF8AD
:1016B000204600F05DF8257720680169C943C90616
:1016C00017D4C168C943C90613D46FF01001016172
:1016D000082020772068C06910F4407F204602D09F
:1016E000FFF791FF04E000F042F8204600F040F8D8
:1016F000257720680169C943C90708D1C168C94372
:10170000C90704D1891E0161204600F033F8206822
:101710000169C943090609D4C168C943090605D44A
:101720006FF0800101612046FFF756FE20680169D5
:10173000C943490609D4C168C943490605D46FF0B5
:1017400040010161204600F059F820680169C94351
:1017500089060BD4C168C943890607D46FF02001FC
:1017600001612046BDE87040FFF737BE70BD70478D
:101770007047000070B51E4C207A401C2072607AC1
:10178000401C6072E069401CE061206A401C2062DD
:10179000B0F57A7F0AD3174D0122D1022846FFF710
:1017A00046F8002229152846FFF741F8207A00253F
:1017B0000A2807D1A079192802D90F48FEF72CFE74
:1017C000A5712572607A0A2808D1E079192803D911
:1017D00009481A30FEF720FE6572E571207800286E
:1017E00005D0E06940F6B831884200D3257070BD5D
:1017F0000000002000080140D00000207047FEE7F4
:1018000001684A69D24352050FD46FF480624A617D
:10181000002140F8301F202242738173026942F098
:10182000040202610173012070470020704700002C
:101830002DE9F84F0446006889460B9D01689846DB
:10184000174641F4806101602068016841F48071AD
:10185000016000954FF0011B0022594620460A9B6B
:1018600000F0DEF84FF4007A40B120680068C0054F
:1018700001D5C4F840A00320BDE8F88F216809F025
:10188000FE0008612B46284920460A9A00F0FCF821
:10189000F0BB20684169806900902A4620460A9979
:1018A00000F070F940B1206C04283AD1206801683A
:1018B00041F40071016034E0FEB2B8F1010F09D0CB
:1018C0002168380A08612A4620460A9900F05AF928
:1018D0000028E8D1206806612A4620460A9900F0CF
:1018E00051F90028DFD12068016841F4807101605E
:1018F00000950022594620460A9B00F091F80028E6
:10190000B3D1216809F0FF0040F00100086100E058
:1019100007E02B46044920460A9A00F0B5F8002853
:10192000AAD00120A8E70000020001002DE9F84339
:10193000044600680D46DDE908970168984616469A
:1019400041F4807101604B4600224FF001112046A6
:10195000009700F065F848B120680068C00502D51E
:101960004FF4007020640320BDE8F883216805F07F
:10197000FE0008613B464A461549204600F084F8BF
:1019800088B920684169806900903A4649462046F6
:1019900000F0F8F848B1206C042804D120680168F0
:1019A00041F4007101600120DEE7F5B2B8F1010FEA
:1019B00009D02168300A08613A464946204600F0BD
:1019C000E1F80028E7D1206805610020CCE700009D
:1019D0000200010070B516460D4604460DE0204693
:1019E000FFF70EFF08B1012070BD681C05D0FEF79F
:1019F00023FF801BA84207D835B120684069C04347
:101A00004007ECD4002070BD002044F8300F2021A6
:101A10006173A073216941F0200121612073E2E725
:101A20002DE9F0471E4690460D460446C1F3074790
:101A3000DDF8209008E0701C06D0FEF7FDFEA0EB5C
:101A40000900B0420FD876B12068012F18D0806904
:101A500025EA00000004000C14D000214145EAD022
:101A60000020BDE8F087002044F8300F202161738A
:101A7000A073216941F02001216120730120F0E76A
:101A80004069E5E70121E9E72DE9F0479A469146EB
:101A90000E46044600254FF02008C1F3074725E015
:101AA00020684069C043400514D42068016841F4AF
:101AB0000071016021686FF480604861256384F8DB
:101AC0003D8084F83E50206C40F00400206484F88F
:101AD0003C501FE0B9F1FF3F08D0FEF7ADFEA0EB90
:101AE0000A0149450CD8B9F1000F09D02068012F2F
:101AF00013D0806926EA00000004000C0BD0CFE769
:101B000044F8305F84F80D80A573206940F0200010
:101B1000206125730120BDE8F0874069EAE72DE9DF
:101B2000F041002590460E460446202717E0406904
:101B3000C043C0060CD454F8301B6FF0100048614D
:101B400044F810596777A577206A2062257717E057
:101B5000FEF772FEA0EB0800B04208D83EB1206844
:101B60004169C9434906E2D40020BDE8F08144F848
:101B7000305F6773A573206940F0200020612573F2
:101B80000120F2E770B516460D4604460DE02046EA
:101B9000FFF736FE08B1012070BD681C05D0FEF7C6
:101BA0004BFE801BA84207D835B120684069C0436E
:101BB0000006ECD4002070BD002044F8300F202136
:101BC0006173A073216941F0200121612073E2E774
:101BD0002DE9F04186B00025414800950195029518
:101BE0000395816941F010018161816901F0100163
:101BF0000491816941F020018161816901F0200136
:101C00000491816941F004018161816901F004015D
:101C10000491816941F0080181618069DFF8C48025
:101C200000F00800049000224FF480614046FEF767
:101C3000FEFD0122D1024046FEF7F9FD4FF460405F
:101C40000326CDE9000669462748FEF7FBFC49F26A
:101C5000F920CDE9000669464046FEF7F3FC062070
:101C6000CDE900050124694602944046FEF7EAFCEE
:101C700040F63F70CDE900061C4F69463846FEF736
:101C8000E1FC1B4E4FF47040CDE90006694602941A
:101C90003846FEF7D7FC2002CDE9000669460294DB
:101CA0004046FEF7CFFC4FF440608DE83100022043
:101CB000039069464046FEF7C5FC0022012117202B
:101CC000FFF7D8F81720FFF7C7F8002201212820D6
:101CD000FFF7D0F82820FFF7BFF806B0BDE8F08185
:101CE000001002400008014000100140000C0140BB
:101CF0000000211010B586B000241648009401940D
:101D00000294039404944FF08041059401604FF4D1
:101D1000E151C0E901140A21C0E903148461FFF70D
:101D200091FB08B172B6FEE74FF48050009069460F
:101D30000848FFF7FDFB08B172B6FEE7049404A95A
:101D400004480594FFF74AFB002801D072B6FEE76D
:101D500006B010BD88000020FEE7FEE77047704720
:101D6000FFF722B830B58FB028216846FEF760FA39
:101D700014210AA8FEF75CFA01210804CDE900103D
:101D80000024029402250491CDE907504FF4E0109D
:101D900009906846FFF77CF908B172B6FEE70F209C
:101DA000CDE90A054FF48060CDE90C4002210AA874
:101DB0000E94FFF791F8002801D072B6FEE70FB03D
:101DC00030BD70470148FFF71FBC000088000020AD
:101DD000F0B50268164B174C174D4FF080479842EC
:101DE00005D0B84203D0A04201D0A84203D122F0CE
:101DF00070064A683243984205D0B84203D0A042E8
:101E000001D0A84203D122F44074CA6822434C692D
:101E100022F08002224302608A68C2620A688262FB
:101E2000984201D10969016301214161F0BD0000BF
:101E3000002C0140000400400008004010B58468F8
:101E400042EA032224F47F440A432243826010BD05
:101E5000826822F070020A4342F0070181607047F5
:101E600010B5036A046A24F001040462846924F052
:101E7000F00444EA021423F00A020A438461026275
:101E800010BD10B5036A23F0100303628369046A6E
:101E900023F4704343EA023224F0A00343EA011121
:101EA0008261016210BDFEE70907090E002804DB0C
:101EB00000F1E02080F80014704700F00F0000F1FE
:101EC000E02080F8141D7047FEF776FFFFF74AFF09
:101ED000FFF77EFE5D485C49002501605C49C0E972
:101EE00001154FF48041C0E9035145618561C56129
:101EF0000562FEF7A7FC08B172B6FEE7FFF7FAFE2F
:101F000052485430FFF7E8FA6420FEF74BFB4F4885
:101F1000FF224021D030FEF783F901234D4A1946B4
:101F20000020FEF73DFA4B4C0127A41EA0780128A3
:101F300001D0677006E0474A03230C3202210020DB
:101F4000FEF72EFA434A0123521C06210020FEF719
:101F500027FA404A0123921C07210020FEF720FAAD
:101F60003C4A0123D21C08210020FEF719FAE07830
:101F7000FF2807D1374AE5700123521C06210020B3
:101F8000FEF71EFA2079FF2807D1324A2571012376
:101F9000921C07210020FEF713FA60792E4EFF28CD
:101FA00007D12C4A67710123D21C08210020FEF7BB
:101FB00007FAB046042146464046FEF733FC10B10E
:101FC0006581B04638E06089401C60816420FEF77E
:101FD000E9FA60891E28EDD16770EBE7A089401C03
:101FE000A0816420FEF7DEFAA0891E2824D10126F4
:101FF00004E03046FEF7BAF9761CB6B22079617972
:102000004843401CB042F4D2E570104A2571677114
:102010000123D03206210020FEF7D2F90B4A01231A
:10202000D03207210020FEF7CBF90A4A0123D21C47
:1020300008210020FEF7C4F902214046FEF7F2FB1A
:102040000028CBD0A581B5E7005400403400002023
:10205000A0860100020000200008014000000000EE
:102060000000000001020304060708090000000048
:102070000102030494200008000000203400000046
:1020800028010008C8200008340000207407000060
:1020900044010008000000000000000000000000F3
:1020A0000000000000000000000000000000000030
:1020B000000000000000000001000000100000000F
:0820C000000000000024F40000
:04000005080000ED02
:00000001FF
